<!DOCTYPE html>
<html>
  <head>
    <title>Ethereum Wallet Presentation by @makevoid</title>
    <meta charset='utf-8'>
    <style>
      @import url(https://fonts.googleapis.com/css?family=Yanone+Kaffeesatz);
      @import url(https://fonts.googleapis.com/css?family=Droid+Serif:400,700,400italic);
      @import url(https://fonts.googleapis.com/css?family=Ubuntu+Mono:400,700,400italic);
      
      body { font-family: 'Droid Serif'; }
      h1, h2, h3 {
        font-family: 'Yanone Kaffeesatz';
        font-weight: normal;
      }
      .remark-code, .remark-inline-code { font-family: 'Ubuntu Mono'; }
      
      ol { font-size: 1.3em }
      
      .remark-code {
        font-size: 17px;
      }
      
      .remark-code-line { font-size: 1.7em }
      
      pre.medcode { margin-left: -45px }
      
      pre.smallcode .remark-code-line { font-size: 1.25em }
      pre.medcode .remark-code-line { font-size: 1.4em }
      
      .hljs.remark-code {
        position: relative;
        background: #fff;
        overflow: hidden;
        width: 100%;
      }
      
      iframe {
        width: 105%; height: 550px; position: relative; top: -35px;
      }
      
      @page {
        size: 1210px 681px;
        margin: 0;
      }
      
      @media print {
        .remark-slide-scaler {
          width: 100% !important;
          height: 100% !important;
          transform: scale(1) !important;
          top: 0 !important;
          left: 0 !important;
        }
      }
      
      .remark-slide-number:after {
        content: "@makevoid";
        position: absolute;
        left: -130px;
        top: 0;
      
        /* content: "DRAFT // @makevoid";
        top: -50px;
        color: #E00;
        font-weight: bold */
      }
      
      img {
        width: 95%;
        margin: 0 auto;
      }
      
      a {
        color: #346ff9;
        text-decoration: none;
      }
      
      a:hover {
        color: #547fff;
      }
      
      /*   left: -65px; */
    </style>
  </head>
  <body>
    <textarea id='source'>&#x000A;class: center, middle&#x000A;&#x000A;# Ethereum Web Wallet DIY&#x000A;&#x000A;&nbsp;&#x000A;&#x000A;&nbsp;&#x000A;&#x000A;**Francesco Canessa**&#x000A;&#x000A;@makevoid&#x000A;&#x000A;&nbsp;&#x000A;&#x000A;Lead Software Developer&#x000A;&#x000A;**Applied Blockchain**&#x000A;&#x000A;&nbsp;&#x000A;&#x000A;Rise London - **Blockchain Week '18** - Development Workshop&#x000A;&#x000A;---&#x000A;&#x000A;# Ethereum Web Wallet&#x000A;&#x000A;&nbsp;&#x000A;&#x000A;1. Setup&#x000A;&#x000A;<!-- node (or runkit), git repo with node and browserify -->&#x000A;&#x000A;2. Generate a Private Key&#x000A;&#x000A;3. Derive an Ethereum address&#x000A;&#x000A;4. Get the address balance&#x000A;&#x000A;5. Sign transansaction&#x000A;&#x000A;6. Broadcast transaction&#x000A;&#x000A;---&#x000A;&#x000A;# Setup&#x000A;&#x000A;&nbsp;&#x000A;&#x000A;Requirement:&#x000A;&#x000A;#### Node installed 7.6+&#x000A;&#x000A;&nbsp;&#x000A;&#x000A;Upgrade or use github:yortus/asyncawait&#x000A;&#x000A;#### https://github.com/yortus/asyncawait#6-quick-start&#x000A;&#x000A;&nbsp;&#x000A;&#x000A;&#x000A;Alternative: Runkit (https://runkit.com)&#x000A;&#x000A;&#x000A;&nbsp;&#x000A;&#x000A;&#x000A;---&#x000A;&#x000A;# Setup&#x000A;&#x000A;&nbsp;&#x000A;&#x000A;```&#x000A;$ node -v&#x000A;&#x000A;v7.6+ (at least)&#x000A;&#x000A;&#x000A;v8 is good (aim for v8.9.x)&#x000A;```&#x000A;&#x000A;&nbsp;&#x000A;&#x000A;9 should be ok as well&#x000A;&#x000A;---&#x000A;&#x000A;&#x000A;# Setup&#x000A;&#x000A;&nbsp;&#x000A;&#x000A;&#x000A;Check Async-Await support&#x000A;&#x000A;### https://runkit.com/makevoid/check-async-support&#x000A;&#x000A;&nbsp;&#x000A;&#x000A;if you don't have native support, you can use **github:yortus/asyncawait**&#x000A;&#x000A;---&#x000A;&#x000A;&#x000A;&#x000A;# Hello Node&#x000A;&#x000A;&nbsp;&#x000A;&#x000A;&nbsp;&#x000A;&#x000A;&nbsp;&#x000A;&#x000A;```js&#x000A;console.log("hello world")&#x000A;```&#x000A;&#x000A;&nbsp;&#x000A;---&#x000A;&#x000A;&#x000A;# Hello Bitcore-Lib&#x000A;&#x000A;&nbsp;&#x000A;&#x000A;&nbsp;&#x000A;&#x000A;&#x000A;```sh&#x000A;npm init -fy&#x000A;&#x000A;&#x000A;npm install --save bitcore-lib&#x000A;```&#x000A;&#x000A;&nbsp;&#x000A;---&#x000A;&#x000A;&#x000A;# Generate a Private Key&#x000A;&#x000A;&nbsp;&#x000A;&#x000A;&#x000A;```js&#x000A;const bitcore = require('bitcore-lib')&#x000A;const PrivateKey = bitcore.PrivateKey&#x000A;&#x000A;const privateKey = new PrivateKey()&#x000A;console.log(privateKey.toString())&#x000A;```&#x000A;&#x000A;&nbsp;&#x000A;&#x000A;&nbsp;&#x000A;&#x000A;#### https://runkit.com/makevoid/bitcore-lib-privatekey&#x000A;&#x000A;&nbsp;&#x000A;&#x000A;---&#x000A;&#x000A;# Derive the PublicKey&#x000A;&#x000A;&nbsp;&#x000A;&#x000A;```js&#x000A;const bitcore = require('bitcore-lib')&#x000A;const PrivateKey = bitcore.PrivateKey&#x000A;&#x000A;const privateKey = new PrivateKey("711fd1eeecec8bb8c912129466504de109a17e764060c7e5e5b56d3ea0a8aa3b")&#x000A;const publicKey  = privateKey.toPublicKey()&#x000A;console.log(publicKey.toString())&#x000A;```&#x000A;&#x000A;&nbsp;&#x000A;&#x000A;&nbsp;&#x000A;&#x000A;#### https://runkit.com/makevoid/bitcore-lib-address&#x000A;&#x000A;---&#x000A;&#x000A;# Generate an address (bitcoin)&#x000A;&#x000A;&nbsp;&#x000A;&#x000A;```js&#x000A;const bitcore = require('bitcore-lib')&#x000A;const PrivateKey = bitcore.PrivateKey&#x000A;&#x000A;const privateKey = new PrivateKey()&#x000A;const publicKey  = privateKey.toPublicKey()&#x000A;console.log(publicKey.toString())&#x000A;const address    = publicKey.toAddress().toString()&#x000A;console.log(address)&#x000A;```&#x000A;&#x000A;&nbsp;&#x000A;&#x000A;#### https://runkit.com/makevoid/bitcore-lib-address&#x000A;&#x000A;---&#x000A;&#x000A;# Wallet Mockup&#x000A;&#x000A;![](/img/wallet-mockup.jpg)&#x000A;&#x000A;---&#x000A;&#x000A;&#x000A;# Setup Web3&#x000A;&#x000A;&nbsp;&#x000A;&#x000A;```js&#x000A;const Web3 = require('web3')&#x000A;&#x000A;const web3 = new Web3("https://kovan.infura.io")&#x000A;&#x000A;```&#x000A;&#x000A;&nbsp;&#x000A;&#x000A;&nbsp;&#x000A;&#x000A;&nbsp;&#x000A;&#x000A;### http://web3js.readthedocs.io/en/1.0/web3.html&#x000A;&#x000A;&nbsp;&#x000A;&#x000A;---&#x000A;&#x000A;# Setup Web3&#x000A;&#x000A;&nbsp;&#x000A;&#x000A;```sh&#x000A;npm init -fy&#x000A;&#x000A;npm i --save web3-eth-accounts&#x000A;npm i --save isomorphic-fetch&#x000A;npm i --save isomorphic-form-data&#x000A;```&#x000A;&#x000A;&nbsp;&#x000A;&#x000A;Optional:&#x000A;&#x000A;```sh&#x000A;npm i --save-dev  lerna&#x000A;npm i --save      ethereum/web3.js#1.0&#x000A;```&#x000A;&#x000A;&nbsp;&#x000A;&#x000A;---&#x000A;&#x000A;# Setup Web3&#x000A;&#x000A;&nbsp;&#x000A;&#x000A;&nbsp;&#x000A;&#x000A;&nbsp;&#x000A;&#x000A;```js&#x000A;const Web3 = require('web3')&#x000A;&#x000A;const web3 = new Web3("https://kovan.infura.io")&#x000A;// use https://mainnet.infura.io for mainnet everywhere,&#x000A;// use https://api.etherscan.io  for mainnet in all examples :)&#x000A;```&#x000A;&#x000A;&nbsp;&#x000A;&#x000A;---&#x000A;&#x000A;&#x000A;# Setup Web3&#x000A;&#x000A;&nbsp;&#x000A;&#x000A;&nbsp;&#x000A;&#x000A;&#x000A;```js&#x000A;const Web3 = require('web3')&#x000A;&#x000A;const provUrl  = "https://kovan.infura.io"&#x000A;const provider = new Web3.providers.HttpProvider(provUrl)&#x000A;&#x000A;const web3 = new Web3(provider)&#x000A;```&#x000A;&#x000A;&nbsp;&#x000A;&#x000A;---&#x000A;&#x000A;&#x000A;# Setup Web3 (accounts)&#x000A;&#x000A;&nbsp;&#x000A;&#x000A;&nbsp;&#x000A;&#x000A;&nbsp;&#x000A;&#x000A;&#x000A;```js&#x000A;const Accounts = require('web3-eth-accounts')&#x000A;&#x000A;const accounts = new Accounts("https://kovan.infura.io")&#x000A;```&#x000A;&#x000A;&nbsp;&#x000A;&#x000A;---&#x000A;&#x000A;# Derive an ethereum address&#x000A;&#x000A;&nbsp;&#x000A;&#x000A;```js&#x000A;const bitcore = require('bitcore-lib')&#x000A;const PrivateKey = bitcore.PrivateKey&#x000A;&#x000A;const Accounts = require('web3-eth-accounts')&#x000A;const accounts = new Accounts()&#x000A;&#x000A;const privateKey = new PrivateKey()&#x000A;const key = `0x${privateKey.toString()}`&#x000A;const account = accounts.privateKeyToAccount(key)&#x000A;console.log(account.address)&#x000A;```&#x000A;&#x000A;&nbsp;&#x000A;&#x000A;&#x000A;https://runkit.com/makevoid/bitcore-lib-web3-accounts&#x000A;&#x000A;&nbsp;&#x000A;&#x000A;---&#x000A;&#x000A;# Generate an ethereum "account"&#x000A;&#x000A;&nbsp;&#x000A;&#x000A;```js&#x000A;const Accounts = require('web3-eth-accounts')&#x000A;const accounts = new Accounts()&#x000A;// note: you can omit "https://kovan.infura.io" for these steps&#x000A;// you need it later when creating/signing the transaction&#x000A;&#x000A;const account = accounts.create()&#x000A;&#x000A;console.log(account.address)&#x000A;```&#x000A;&#x000A;&nbsp;&#x000A;&#x000A;&nbsp;&#x000A;&#x000A;&#x000A;https://runkit.com/makevoid/web3-eth-accounts-address&#x000A;&#x000A;---&#x000A;&#x000A;# Load the private key (Node) 1/2&#x000A;&#x000A;&nbsp;&#x000A;&#x000A;&#x000A;```js&#x000A;const Accounts = require('web3-eth-accounts')&#x000A;const accounts = new Accounts("https://kovan.infura.io")&#x000A;&#x000A;const account = accounts.create()&#x000A;&#x000A;console.log(account.privateKey)&#x000A;```&#x000A;&#x000A;&nbsp;&#x000A;&#x000A;&nbsp;&#x000A;&#x000A;Extra step: save key into `private-key.txt`&#x000A;&#x000A;&nbsp;&#x000A;&#x000A;https://runkit.com/makevoid/web3-eth-accounts-private-key&#x000A;&#x000A;---&#x000A;&#x000A;# Load the private key (Node) 2/2&#x000A;&#x000A;&nbsp;&#x000A;&#x000A;```js&#x000A;const fs = require('fs')&#x000A;const readFileSync = fs.readFileSync&#x000A;const Accounts = require('web3-eth-accounts')&#x000A;const accounts = new Accounts("https://kovan.infura.io")&#x000A;&#x000A;const key = readFileSync("private-key.txt")&#x000A;&#x000A;const account = accounts.privateKeyToAccount(key)&#x000A;&#x000A;console.log(account.address)&#x000A;```&#x000A;&#x000A;&#x000A;---&#x000A;&#x000A;# Load the same key (Node)&#x000A;&#x000A;&nbsp;&#x000A;&#x000A;```js&#x000A;const fs = require('fs')&#x000A;const readFileSync = fs.readFileSync&#x000A;const Accounts = require('web3-eth-accounts')&#x000A;const accounts = new Accounts("https://kovan.infura.io")&#x000A;&#x000A;const key = readFileSync("private-key.txt")&#x000A;&#x000A;const account = accounts.privateKeyToAccount(key)&#x000A;&#x000A;console.log(account.address)&#x000A;```&#x000A;&#x000A;&#x000A;&nbsp;&#x000A;&#x000A;run this again - notice that it will return the same address! :D&#x000A;&#x000A;&#x000A;---&#x000A;&#x000A;# Receive Ethers&#x000A;&#x000A;&nbsp;&#x000A;&#x000A;&#x000A;https://duckduckgo.com&#x000A;&#x000A;&nbsp;&#x000A;&#x000A;!qr 0x1234...&#x000A;&#x000A;&#x000A;&nbsp;&#x000A;&#x000A;&#x000A;&nbsp;&#x000A;&#x000A;&#x000A;&nbsp;&#x000A;&#x000A;&#x000A;&nbsp;&#x000A;&#x000A;&nbsp;&#x000A;&#x000A;tip for future UI - handy QR npm package:&#x000A;&#x000A;https://www.npmjs.com/package/davidshimjs-qrcodejs&#x000A;&#x000A;---&#x000A;&#x000A;# Check transaction on block explorer&#x000A;&#x000A;&#x000A;&nbsp;&#x000A;&#x000A;&nbsp;&#x000A;&#x000A;### https://etherscan.io/address/0x1234...&#x000A;&#x000A;&#x000A;&nbsp;&#x000A;&#x000A;&nbsp;&#x000A;&#x000A;&#x000A;#### https://kovan.etherscan.io/...&#x000A;&#x000A;(for testnet)&#x000A;&#x000A;---&#x000A;&#x000A;# Kovan Faucet&#x000A;&#x000A;&nbsp;&#x000A;&#x000A;&nbsp;&#x000A;&#x000A;### https://gitter.im/kovan-testnet/faucet&#x000A;&#x000A;---&#x000A;&#x000A;# Check address balance&#x000A;&#x000A;```js&#x000A;require('isomorphic-fetch')&#x000A;&#x000A;const getBalance = async (address) => {&#x000A;  const balanceUrl = `https://kovan.etherscan.io/api?module=account&action=balance&address=${address}&tag=latest`&#x000A;  let resp = await fetch(balanceUrl)&#x000A;  resp = await resp.json()&#x000A;  return Number(resp['result'] || 0)&#x000A;}&#x000A;&#x000A;(async () => {&#x000A;  const balance = await getBalance("0x738d145faabb1e00cf5a017588a9c0f998318012")&#x000A;  console.log(balance)&#x000A;})()&#x000A;```&#x000A;&#x000A;https://runkit.com/makevoid/etherscan-getbalance&#x000A;&#x000A;&#x000A;Etherscan API:&#x000A;https://etherscan.io/apis#accounts&#x000A;&#x000A;&#x000A;---&#x000A;&#x000A;# Create Transaction - 1/2&#x000A;&#x000A;```js&#x000A;const createTx = async ({recipient, account, value}) => {&#x000A;  const txData = {&#x000A;    value: value,&#x000A;    to: recipient,&#x000A;    gas: 21000,&#x000A;    gasPrice: 5000000000, // 5 gwei&#x000A;    from: account.address,&#x000A;    // nonce: 1,&#x000A;  }&#x000A;  const tx = await account.signTransaction(txData)&#x000A;  const txRaw = tx.rawTransaction&#x000A;  console.log("TX RAW", txRaw)&#x000A;  return txRaw&#x000A;}&#x000A;```&#x000A;&#x000A;---&#x000A;&#x000A;# Create Transaction - 2/2&#x000A;&#x000A;```js&#x000A;(async () => {&#x000A;  const fs = require('fs')&#x000A;  const readFileSync = fs.readFileSync&#x000A;  const Accounts = require('web3-eth-accounts')&#x000A;  const accounts = new Accounts("https://kovan.infura.io")&#x000A;&#x000A;  const key = readFileSync("private-key.txt")&#x000A;  const account = accounts.privateKeyToAccount(key)&#x000A;&#x000A;  createTx({&#x000A;    account:    account,&#x000A;    recipient:  "0xD9dDF72Ef671261Cb2266B9D924c5980C5186699",&#x000A;    value:      100000000000000, // 100 szabo&#x000A;  })&#x000A;})()&#x000A;```&#x000A;&#x000A;https://ethgasstation.info -&#x000A;https://converter.murkin.me&#x000A;&#x000A;---&#x000A;&#x000A;For reference:&#x000A;&#x000A;```js&#x000A;const createTx = async ({recipient, account, value}) => {&#x000A;  const txData = {&#x000A;    value: value,&#x000A;    to: recipient,&#x000A;    gas: 21000,&#x000A;    gasPrice: 5000000000, // 5 gwei&#x000A;    from: account.address,&#x000A;    // nonce: 1,&#x000A;  }&#x000A;  const tx = await account.signTransaction(txData)&#x000A;  const txRaw = tx.rawTransaction&#x000A;  console.log("TX RAW", txRaw)&#x000A;  return txRaw&#x000A;}&#x000A;&#x000A;(async () => {&#x000A;  const fs = require('fs')&#x000A;  const readFileSync = fs.readFileSync&#x000A;  const Accounts = require('web3-eth-accounts')&#x000A;  const accounts = new Accounts("https://kovan.infura.io")&#x000A;&#x000A;  const key = readFileSync("private-key.txt")&#x000A;  const account = accounts.privateKeyToAccount(key)&#x000A;&#x000A;  createTx({&#x000A;    account:    account,&#x000A;    recipient:  "0xD9dDF72Ef671261Cb2266B9D924c5980C5186699",&#x000A;    value:      100000000000000, // 100 szabo&#x000A;  })&#x000A;})()&#x000A;```&#x000A;&#x000A;---&#x000A;&#x000A;&#x000A;# Broadcast Transaction&#x000A;&#x000A;&nbsp;&#x000A;&#x000A;&nbsp;&#x000A;&#x000A;&nbsp;&#x000A;&#x000A;## https://kovan.etherscan.io/pushTx&#x000A;&#x000A;(manual)&#x000A;&#x000A;---&#x000A;&#x000A;&#x000A;# Broadcast Transaction&#x000A;&#x000A;programmatically&#x000A;&#x000A;```js&#x000A;require('isomorphic-fetch')&#x000A;require('isomorphic-form-data')&#x000A;&#x000A;const broadcastTransaction = async (rawTx) => {&#x000A;  const broadcastUrl = "https://kovan.etherscan.io/api"&#x000A;&#x000A;  // ...&#x000A;}&#x000A;```&#x000A;&#x000A;&#x000A;---&#x000A;&#x000A;&#x000A;# Broadcast Transaction&#x000A;&#x000A;```js&#x000A;const broadcastTransaction = async (rawTx) => {&#x000A;  const broadcastUrl = "https://kovan.etherscan.io/api"&#x000A;  const data = new FormData()&#x000A;  data.append('module', 'proxy')&#x000A;  data.append('action', 'eth_sendRawTransaction')&#x000A;  data.append('hex', rawTx)&#x000A;  data.append('apikey', '3DQFQQZ51G4M18SW8RDKHIMERD79GYTVEA') // please use your own api key&#x000A;  let resp = await fetch(broadcastUrl, {&#x000A;    method: "post",&#x000A;    body: data,&#x000A;  })&#x000A;  resp = await resp.json()&#x000A;  console.log("broadcast Tx:", resp)&#x000A;  return resp&#x000A;}&#x000A;```&#x000A;&#x000A;&#x000A;---&#x000A;&#x000A;&#x000A;# Broadcast Transaction&#x000A;&#x000A;```js&#x000A;// ...&#x000A;&#x000A;(async () => {&#x000A;  const rawTx = "0xf86a0285012a05f20082520894d9ddf72ef671261cb2266b9d924c5980c5186699865af3107a40008026a0824d7b8b937437feff4ab206a556d599a70ce150ecc6ceeee7174bb5c679e0cea0643e49ae4bb8aae422245b6837997cff4a03714088043afc83deabf03043f253"&#x000A;&#x000A;  await broadcastTransaction(rawTx)&#x000A;})()&#x000A;&#x000A;```&#x000A;&#x000A;---&#x000A;&#x000A;&#x000A;For reference:&#x000A;&#x000A;```js&#x000A;require('isomorphic-fetch')&#x000A;require('isomorphic-form-data')&#x000A;&#x000A;const broadcastTransaction = async (rawTx) => {&#x000A;  const broadcastUrl = "https://kovan.etherscan.io/api"&#x000A;  const data = new FormData()&#x000A;  data.append('module', 'proxy')&#x000A;  data.append('action', 'eth_sendRawTransaction')&#x000A;  data.append('hex', rawTx)&#x000A;  data.append('apikey', '3DQFQQZ51G4M18SW8RDKHIMERD79GYTVEA') // please use your own api key&#x000A;  let resp = await fetch(broadcastUrl, {&#x000A;    method: "post",&#x000A;    body: data,&#x000A;  })&#x000A;  resp = await resp.json()&#x000A;  console.log("broadcast Tx:", resp)&#x000A;  return resp&#x000A;}&#x000A;&#x000A;&#x000A;(async () => {&#x000A;  const rawTx = "0xf86a0285012a05f20082520894d9ddf72ef671261cb2266b9d924c5980c5186699865af3107a40008026a0824d7b8b937437feff4ab206a556d599a70ce150ecc6ceeee7174bb5c679e0cea0643e49ae4bb8aae422245b6837997cff4a03714088043afc83deabf03043f253"&#x000A;&#x000A;  await broadcastTransaction(rawTx)&#x000A;})()&#x000A;```&#x000A;&#x000A;&#x000A;---&#x000A;&#x000A;# Wallet Mockup&#x000A;&#x000A;![](/img/wallet-mockup.jpg)&#x000A;&#x000A;&#x000A;---&#x000A;&#x000A;# Tools&#x000A;&#x000A;&#x000A;&nbsp;&#x000A;&#x000A;### - Browserify&#x000A;&#x000A;### - Babel&#x000A;&#x000A;&#x000A;&nbsp;&#x000A;&#x000A;```js&#x000A;npm i -g browserify babelify&#x000A;```&#x000A;&#x000A;---&#x000A;&#x000A;# Tools - Browserify&#x000A;&#x000A;&#x000A;&nbsp;&#x000A;&#x000A;RUN:&#x000A;&#x000A;```sh&#x000A;browserify js/index.js > js/dist/bundle.js&#x000A;```&#x000A;&#x000A;&nbsp;&#x000A;&#x000A;&#x000A;ADD:&#x000A;&#x000A;```html&#x000A;<script src="js/dist/bundle.js" charset="utf-8"></script>&#x000A;```&#x000A;&#x000A;&#x000A;---&#x000A;&#x000A;# Tools - Browserify (bonus)&#x000A;&#x000A;&#x000A;&nbsp;&#x000A;&#x000A;```js&#x000A;npm i -g watchify&#x000A;```&#x000A;&#x000A;&nbsp;&#x000A;&#x000A;RUN:&#x000A;&#x000A;```sh&#x000A;watchify js/index.js -o js/dist/bundle.js&#x000A;```&#x000A;&#x000A;---&#x000A;&#x000A;# Tools - Babel&#x000A;&#x000A;&#x000A;&nbsp;&#x000A;&#x000A;```sh&#x000A;.babelrc&#x000A;```&#x000A;&#x000A;&#x000A;&nbsp;&#x000A;&#x000A;```&#x000A;{&#x000A;  "presets": ["env"]&#x000A;}&#x000A;```&#x000A;&#x000A;---&#x000A;&#x000A;# Have fun!&#x000A;&#x000A;&nbsp;&#x000A;&#x000A;&nbsp;&#x000A;&#x000A;&nbsp;&#x000A;&#x000A;&nbsp;&#x000A;&#x000A;&nbsp;&#x000A;&#x000A;&nbsp;&#x000A;&#x000A;&nbsp;&#x000A;&#x000A;&nbsp;&#x000A;&#x000A;&#x000A;&#x000A;```js&#x000A;@makevoid&#x000A;```&#x000A;&#x000A;Applied Blockchain&#x000A;&#x000A;&#x000A;---&#x000A;&#x000A;&#x000A;&nbsp;&#x000A;&#x000A;&nbsp;&#x000A;&#x000A;&nbsp;&#x000A;&#x000A;&nbsp;&#x000A;&#x000A;# Few minutes left!&#x000A;&#x000A;&#x000A;&#x000A;&#x000A;---&#x000A;&#x000A;&nbsp;&#x000A;&#x000A;&nbsp;&#x000A;&#x000A;&nbsp;&#x000A;&#x000A;&nbsp;&#x000A;&#x000A;# Time's up!&#x000A;&#x000A;&#x000A;---&#x000A;&#x000A;# Thanks for attending!&#x000A;&#x000A;&nbsp;&#x000A;&#x000A;&nbsp;&#x000A;&#x000A;&nbsp;&#x000A;&#x000A;&nbsp;&#x000A;&#x000A;&nbsp;&#x000A;&#x000A;&nbsp;&#x000A;&#x000A;&nbsp;&#x000A;&#x000A;&nbsp;&#x000A;&#x000A;&#x000A;&#x000A;```js&#x000A;@makevoid&#x000A;```&#x000A;&#x000A;Applied Blockchain&#x000A;</textarea>
    <script src='/js/vendor/remark.js'>
      <![CDATA[
      ]]>
    </script>
    <script>
      var slideshow = remark.create();
    </script>
    <script>
      var confirmOnPageExit = function (e)
      {
          e = e || window.event;
          var message = 'shtop!';
          return message;
      };
      window.onbeforeunload = confirmOnPageExit;
    </script>
  </body>
</html>
